:020000040000FA
:20000000020E8590F3BBE07B012222021E9A90F539E075F016A424D7F582E5F03405F583FE
:20002000228C8375F002EF120581E493FC74019322A424E3F582E5F03405F58322EF75F0E6
:2000400002020581F5828C83E0FE90F53AE022E0FCA3E0FDF5828C8322222202005EC0E0A9
:20006000C083C082C0D075D000C005C00690FC82E05403FDF090F527E04408F090F524E018
:20008000AE054EF0D006D005D0D0D082D083D0E032222202155C90F6C1E020E003020302B5
:2000A000E0FF1313543F20E00DE0FFC41313540320E00302019790F637E014604004600326
:2000C00002030212030370030203029006C9121D5E4480F09006F5E493FE740193FFF58269
:2000E0008E83E0547FF090F6C1121D6D30E0088F828E83E04408F090F6370202C31203106A
:200100007003020302121D5B54F7F090F6C1121D6D30E03290F603E01313543F30E0117FB9
:200120004612032A90F603E054FBF012120D800790F6C0E04440F090F637E004F090F78E9A
:20014000E0547FF0801F7F6612032A90F78CE054FBF090F6C0E04480F090F637E004F0900C
:20016000F6367404F090FBFAE0FF90F3BBE07003020302EF641C7003020302E490F3B9F0F6
:2001800090F7B1F090F794E054F7F0E054FDF090F795E054FEF02290F636E0B407004003E6
:2001A0000203029001AAF82828730201BF02021902023B02026202027F02029E0202C7903E
:2001C000FBFBE0540FFFBF021390F785E020E00C7F57121D0F90F788E04404F090F6CFE0AB
:2001E00054FDF0E054FEF090F785E030E0257D0212033370030203027F52121D0F7F4E124C
:200200001D0F7F30121D0F121D5B4480F090F6360202C390F6360202C37F4E121D0F7F31C6
:20022000121D0F90061F121D5E4440F090061B121D5E4440F090F6360202C3900603121DCD
:200240005E4408F012030370030203027F4E121D0F7F32121D0F121D5B4408F090F63602F4
:2002600002C312031070030203027F4E121D0F7F33121D0F121D5B54F7F090F63680447D5D
:2002800003120333607C7F4E121D0F7F34121D0F9006C9121D5E547FF090F6368025120316
:2002A0001D605F121D7430E0177F4E121D0F7F35121D0F90F78EE020E006121D5B54FEF0D4
:2002C00090F636E004F02212031D6036121D7430E01E7F4E121D0F7F36121D0F90F78EE0E0
:2002E00020E006121D5B4401F090F6C0E0547FF090F78EE054FEF090F636E004F0E490F61F
:2003000037F0227B017AF679397D05121EFDEF227B017AF679397D37121EFDEF227B017AB0
:20032000F679397D0A121EFDEF22121D0F7F31121D0F227B017AF67939121EFDEF22E70936
:20034000F608DFFA8046E709F208DFFA803E88828C83E709F0A3DFFA8032E309F608DFFA95
:200360008078E309F208DFFA807088828C83E309F0A3DFFA806489828A83E0A3F608DFFA0F
:20038000805889828A83E0A3F208DFFA804C80D280FA80C680D4806980F28033801080A621
:2003A00080EA809A80A880DA80E280CA803389828A83ECFAE493A3C8C582C8CCC583CCF019
:2003C000A3C8C582C8CCC583CCDFE9DEE7800D89828A83E493A3F608DFF9ECFAA9F0EDFB3A
:2003E0002289828A83ECFAE0A3C8C582C8CCC583CCF0A3C8C582C8CCC583CCDFEADEE8804A
:20040000DB89828A83E493A3F208DFF980CC88F0EF60010E4E60C388F0ED2402B4040050D7
:20042000B9F582EB2402B4040050AF232345822390038E73BB010689828A83E0225002E7EB
:2004400022BBFE02E32289828A83E49322BB010B89828A83F8E0C828F0E822500327C72205
:20046000BBFE07F8E3C828F3E8228A838982E49322BB010CE58229F582E5833AF583E02258
:200480005006E92582F8E622BBFE06E92582F8E222E58229F582E5833AF583E49322BB01B5
:2004A0000689828A83F0225002F722BBFE01F322F8BB010DE58229F582E5833AF583E8F018
:2004C000225006E92582C8F622BBFE05E92582C8F222C5F0F8A3E028F0C5F0F8E582158217
:2004E00070021583E038F022EF4BFFEE4AFEED49FDEC48FC22EB9FF5F0EA9E42F0E99D42E3
:20050000F0E89C45F022E8600FECC313FCED13FDEE13FEEF13FFD8F122E8600FEFC333FFD8
:20052000EE33FEED33FDEC33FCD8F122E0FCA3E0FDA3E0FEA3E0FF22E0F8A3E0F9A3E0FA27
:20054000A3E0FB22ECF0A3EDF0A3EEF0A3EFF022A8828583F0D083D08212056712056712A5
:200560000567120567E473E493A3C583C5F0C583C8C582C8F0A3C583C5F0C583C8C582C855
:2005800022A42582F582E5F03583F58322E0FBA3E0FAA3E0F922EBF0A3EAF0A3E9F022E480
:2005A00093FB740193FA740293F922D083D082F8E4937012740193700DA3A393F874019393
:2005C000F5828883E4737402936860EFA3A3A380DF8A838982E473000000000000000000CB
:2005E00000000000000000000000000000FC20FC10FC60FC00FC50FC40FC30FF30FF40FF5A
:2006000050FF60FC21FC11FC61FC01FC51FC41FC31FF31FF41FF51FF61FC22FC12FC62FC4A
:2006200002FC52FC42FC32FF32FF42FF52FF62FC23FC13FC63FC03FC53FC43FC33FF33FF60
:2006400043FF53FF63FC24FC14FC64FC04FC54FC44FC34FF34FF44FF54FF64FC25FC15FCF9
:2006600065FC05FC55FC45FC35FF35FF45FF55FF65FC26FC16FC66FC06FC56FC46FC36FFC4
:2006800036FF46FF56FF66FC27FC17FC67FC07FC57FC47FC37FF37FF47FF57FF67FC28FC68
:2006A00018FC68FC08FC58FC48FC38FF38FF48FF58FF68FC29FC19FC69FC09FC59FC49FC78
:2006C00039FF39FF49FF59FF69FC2AFC1AFC6AFC0AFC5AFC4AFC3AFF3AFF4AFF5AFF6AFCE7
:2006E0002BFC1BFC6BFC0BFC5BFC4BFC3BFF3BFF4BFF5BFF6BFC2CFC1CFC6C000000000085
:2007000000FC3C0000000000000000FC2DFC1DFC6D000000000000FC3D00000000000000BD
:2007200000FC2EFC1EFC6E000000000000FC3E0000000000000000FC2FFC1FFC6F00000020
:20074000000000FC3FFF3CFF4CFF5CFF6C000000000000000000000000FED1000000000043
:20076000000000000000000000000000000000FED30000000000000000FED20000000000D8
:200780000000000000F6320000000000000000FED400000000000000000000F63300000036
:2007A000000000000000FF0000000000000000000000000000000000000000FF180061FFC3
:2007C000150005FF100000FF110000FF120000FF130000FEA40000FE900020FE910030FEB0
:2007E0009200FFFE93002CFE940020FE9500FDFCA10000000000000000000000FF000000CD
:20080000006D030000000061041B02000000004B005A045B022004000000000000000000BC
:200820000000000000000000000000000000000000000000000000000000000000000000B8
:2008400000000000000000000000004C0E4D0E00000000520E530E1F001E0A00FF90F52235
:20086000E020E4030208EE90FFBDE090F52EF0E024D0602114602C24E960382498604214BE
:20088000604824FB604F24B6705890FFBE740FF0E4A3F08052904001E49390FFBEF09040E2
:2008A00000800C904004E49390FFBEF0904002E493802990F789E090FFBEF090F78AE08094
:2008C0001B12172EA37455F0801DE490FFBEF0A37440F0801212172E90F220E090FFBFF09C
:2008E000800512172EA3F090FF967408F02290FF967408F090FFBDE090F52EF090FFBEE049
:2009000090F525F090FFBFE090F51FF090F52EE02449603E14606414700302099E1470034E
:20092000020A0B24656003020A1390FFBEE090F63BF0E0FFD3947F4005747FF0800CEFC38C
:200940009405500690F63B7405F090F6CFE04410F02290F51FE090FBF3F090F525E024FE45
:20096000600B24FE600E24036003020A1390F2207401F02290F2207403F02290F51FE0FEFD
:2009800090F525E07C002400FFEC3EFEE4FD90F228120544E490F225F090F224F02290F26B
:2009A00024E0FFC39421506BE490F220F0EF642090F525603DE0FF90F224E0FE2430F582A3
:2009C000E434F2F583EFF090F51FE0FF74312EF582E434F2F583EFF090F2501216CF240299
:2009E000FFE43EFEE43DFDE43CFC90F2501205448005E090F222F090F224E02402F0E0B448
:200A00002211E4F090F22074A5F02290F525E090F68AF02290F226E0600214F090F220E0E6
:200A2000B4A5227B017AF279307D2012188090F221EFF090F222E090F220B50705745AF03C
:200A400080037402F090F220E0645A6003020B3890F225E0146056046003020B8EE4FFFE91
:200A60007D0290F2281216E0601F1216CC121722C0071216CC121728AD07E0D007121A6084
:200A8000EF600690F225E004F07F0A121D0F7F62121D0F1216CC121722120FB21216CC1288
:200AA0001728120FB290F22BE0FF020FB290F22C120550000000007F201216DA4003020BCF
:200AC0008E1216CC121722C0071216CC121728AD0790F22FE0FF90F22BE02FFB74302FF57A
:200AE00082E434F2F583E090F53BF0D007121A017F1F1216DA70301216CC242090F228122A
:200B000016F090F228A3A3E0FEA3E0FFEE540FFEE4FDFCFBFAF9F8C31204F5700490F22584
:200B2000F090F2207401F090F22C1216CF240190F22C1216F0020AB790F220E06403704EC4
:200B4000FB7DC07F01121A607D01120B9760057DD0120B8F7D02120B97600E7DE0120B8F17
:200B6000E4FB7DF07F01121A60E490F220F07F0A121D0F7F46121D0F7F57121D0F7F6F12C9
:200B80001D0F7F6B121D0F90F789E054BFF022E4FB7F01121A602290FBF3E0FF121F79EFE9
:200BA0002290F535EEF0A3EFF0E4A3F090F53512004FC083C08290F537E0F9D082D0831296
:200BC000003EE493FA740193FBF44A7003020D14EA54F8131313541F90F539F0EA5407A317
:200BE000F08D828C83E912003E74019390F53BF0E490F538F090F538E0FFD3940540030218
:200C00000D0BA3E0FE12001212003D7401937002E4937003020D02EE6413600890F539E0E8
:200C20006414706990F539E0FF75F01612003112002A120044FD7401A805088002C333D8FF
:200C4000FCF4FC5EFE90F538E0FB90F53BE0FAA803088002C313D8FC5401FBA805088002B4
:200C6000C333D8FCFD4EFE75F016EF120031E493FA740193F5828A83EEF0E05C4DFF12003F
:200C80000E12002AF5828C83EFF0020D0290F535E0FEA3E0F5828E83C083C08290F537E0D0
:200CA000D082D08312003EE493700E90FBF1E0645A7004A3E064A5604912000EC083C082E2
:200CC00090F538E0FFD082D08375F002120027FD120044F97401A801088002C333D8FCF481
:200CE0005EFE90F53BE0FBA807088002C313D8FC5401FFA801088002C333D8FC4E8D828CE0
:200D000083F090F538E004F0020BF590F537E004F0020BAC2290F7C0E06003020E7C7B01D0
:200D2000FD7F04121AB9EF6003020E2290F638E004F0E07003E014F090F7CDE004F0700663
:200D400090F7CCE004F090F7CCE07002A3E0700E90F7CDE024FFF090F7CCE034FFF090F7A2
:200D6000CCE0FAA3E0FBC3942CEA9401402590F78DE0C4540F20E01BE0FF13135401FDEF6C
:200D800054FBFFED64015401FE25E025E04FF0E04410F090F6C1E030E03190F78E121D6DDA
:200DA00020E028121D6A20E02290F6C1E01313543F20E00990070B121D5E4402F0C3EB94C0
:200DC00090EA940140057F1312181790F6C1E020E006121D7730E009121D6A20E003020E54
:200DE0007C121D5B4420F090F638E0C394645003020E7C7B017D017F10121AB9EF700790FD
:200E0000F785E04401F0121D6A30E00890F68A7403F080057F011214C290F78EE04440F0C3
:200E2000805A90F638E0605490F78DE054EFF090070B121D5E54FDF090F703E054EFF090C2
:200E4000F78EE054BFF090F6C1E030E01EE0FF1313543F30E01590F78DE0547FF090F6CF0C
:200E6000E054FEF090F784E04404F090F6C1E020E00312100890F6C1E0547FF090F7C0E0C8
:200E8000600214F022E5864410F58675812190FC107420F090FF01E0B400028015B4F00FEB
:200EA000E58754DFF58790FBE3E566F0020FAC020F6190FBE07400F090FF1FE0B426189060
:200EC000FF00E0B4C00890FF0F74FFF08009B4D00690FF0F74B8F090FEADE04404F0020F85
:200EE0002C90FE9574EDF090FEA57464F090FC02E0547FF090FC12E04480F090FC22E04422
:200F000080F0787FE4F6D8FD90EC007FE07E10E4F0A3DFFCDEFA90FC22E0547FF090FC6BE0
:200F2000E04402F090FC3BE05402800C90FF0DE054F34404F0020EE190FEA87400F090FEFE
:200F4000A974C0F090FEAA7401F090FEADE04409F090FEAC740BF090FEABE0B45A03020FEB
:200F6000AC020FA3E490402393FFA3E493FEBF000280010E90403078007900E493A3FA2813
:200F8000F8EA69F9DFF5DEF3E490402293C399701B7410FE904020E493A328F8DEF9C3E8EA
:200FA000B40009E5874420F587024030020FAF021CE290F53BEFF0E0FFC4540FFEA3F0EFD1
:200FC000540F90F53BF0EED394094006A3E02437800690F53CE02430FF121D0F90F53BE024
:200FE000FFD394094005EF2437800690F53BE02430FF121D0F7F2C021D0F121C4C7FFF2249
:20100000910D3F002141000090F63BE060030210FD12000360067D027F0B80047D017F0C6D
:20102000121AB9EF60141210FE700F90F6C1E0131313541F30E0030210FD1210FE6003024F
:2010400010FD12000360067D027F0B80047D017F0C121AB9EF601590F606E030E003021098
:20106000FDE01313543F30E0030210FD12000360067D027F0B80047D017F0C121AB9EF6073
:2010800005121109601FE4FFFE0FBF00010EBE01F8BF90F59006F5E493FE740193F5828EDA
:2010A00083E054DFF012000360067D027F0B80047D017F0C121AB9EF6005121109603E9006
:2010C000F6C1E0C4131313540130E00A90FBF174A5F0A3745AF07F04121DC6120003600634
:2010E0007D027F0B80047D017F0C121AB9EF600302100890FF14E04401F002100822E4FB36
:201100007D037F03121AB9EF22E4FB7D037F03121AB9EF2274FF90F538F0A3F090F54CE09C
:2011200054FDF074FF90F538F0A3F090FC86E030E35B7F0A121D0F7F49121D0F90F54DE0DC
:20114000FF120FB290F54CE030E00FA3E0FF64AE6008EF64AD6003121E7F90F54DE0FF121C
:2011600015D790F52FEFF0BFFF04E4F0807690F52FE0707090F533F090F54DE0FFC4540F70
:2011800075F003A42441F582E43419803790F533E0700690F52FE0604B7F44121D0F90F5AC
:2011A0004BE0FF120FB290F52FE090F54B702BE0FF90F533E0FEC4540F75F003A42471F501
:2011C00082E43419F58312059F89828A831205D590F538EEF0A3EFF0800AE0FF121652909A
:2011E000F52FEFF090F538E0F47003A3E0F4600F90F539E0FF90F532E0FDE4FB1218E19057
:20120000F54CE0FFC31320E003121E472290F6C0E0547FF0A3E0549AF0E0131313541F2046
:20122000E0047F0180027F00EF5401C454F0FF90F6C1E054EF4FF090F600E054F7F090F72D
:201240008BE054F7F090F78DE0547FF090F78CE01313543F90F78530E00DE04401F090F7C0
:201260008CE054FBF08004E054FEF0E490F636F090F4A5F090F601E054FDF0E054BFF0E405
:2012800090F60DF090F600E054FDF0E490F631F090F6A2F090F6C0E054BFF0E490F660F09E
:2012A00090F607E054FB121EE690F68AE0700312100812005990FBFAE0B41C0790F781E040
:2012C00054BFF090F6C0E04401F090F700E054EFF02290F547EFF090F548EDF090F547E0F3
:2012E000FFEF1205AB12EF521308590000137290F548E0FFEF64A4600302137A90F549741B
:2013000002F0A37480F0807290F548E0FFEF64F270477F52121D0F7F53121D0F7F54121D99
:201320000F90FBF1745AF0A374A5F090FF0174A5F090FE95E0FFEF547FFF90FE95EFF090CA
:20134000FEA774A3F090FEA57405F090F55474A5F090F549E4F0A3E4F090F548E0FFEFB4FB
:20136000F61890F68A7403F090F549E4F0A3E4F0800890F549E4F0A3E4F090F549E0FEA3DF
:20138000E0FF227E077FBB121BA47E077FFD120BA190FBF1E0B45A1AA3E0B4A515121F4215
:2013A0004420F090F63B7482F090F6C0E04401F0804490F3BBE07B0160067D027F0B800486
:2013C0007D017F0C121AB9EF702C7B01FD7F04121AB9EF701B90F6C1E0C4131313540120A0
:2013E000E00E121F424420F090F638740AF08006121F4254DFF07E177F3F120BA190F6C198
:20140000E04410F0E490FBF1F0A3F090F60EE04480F090F6F6E4F0A374C8F0E490FBEEF031
:20142000A3F022E490F537F090F537E0FFC3940440030214C174262FF582E434F5F583E0B2
:2014400090F535F0E4A3F090F535E0606B90F535E020E009C313F0A3E004F080F0C2AF90B5
:20146000F537E0FF2426F582E434F5F583C083C082E0FE90F536E0FD7401A805088002C3B1
:2014800033D8FC6ED082D083F0D2AFEF75F018A424A1F582E43419F58375F003ED120581DF
:2014A00012059F1205D190F535E0C313FFF0A3E004F0EF20E0A7808F90F537E004F002146D
:2014C000282290F538EFF090F781E0BF0F054440F0800354BFF090F6CFE054FDF0E054FEC9
:2014E000F090FBFBE0C454F0FFF090F538E0540F4F90FBFBF07F4F121D0F7F4E121D0F9033
:20150000F538E0FF120FB29006F5E493FE740193F5828E83E04420F090FC80E054FBF0906D
:20152000F6C0E0547DF0A3E054A3F0E04401F0E490F63CF090F601E0547FF090F607E05454
:20154000BF121EE690F4AFE0547FF090F7C07478F012000A90F6C0E054FEF022C0E0C0F0C7
:20156000C083C082C0D075D000C000C001C002C003C004C005C006C00790FF80E090F5344D
:20158000F090FF807401F090FF96E0541890F522F0E030E30C12085D90FF99E0547FF0801E
:2015A0001390FF80E4F090FF99E030E70790F528E04404F090F534E090FF80F0D007D00605
:2015C000D005D004D003D002D001D000D0D0D082D083D0F0D0E03290F53DEFF090F53DE0F2
:2015E000FF121B0E90F53EEEF0A3EFF090F53EE0FEA3E0FFEEFF7E0090F540EFF090F54097
:20160000E0FFEF1205AB161600161901162902164AFF0000164F7F002290F53DE0FF90F512
:2016200056EFF090F53DE0FF2290F53FE0FFEF54FFFF90F541EFF090F541E0FF7B007D018B
:201640001218E190F556E4F0800590F556E4F07FFF2290F542EFF090F556E0FF90F542E0F5
:20166000FD1212D290F543EEF0A3EFF090F543E0FEA3E0FFEEFF7E0090F545EFF090F54549
:20168000E0FFEF1205AB169600169901169F0216C1FF000016C97F002290F556E0FF2290E5
:2016A000F544E0FFEF54FFFF90F546EFF090F546E0FF7B007D011218E190F556E4F07F004B
:2016C0002290F556E4F07F00227FFF2290F228E0FCA3E0FDA3E0FEA3E022E4FEFD90F22C3F
:2016E000FCE0F8A3E0F9A3E0FAA3E0FBC30204F5FFE43EFEE43DFDE43CFC020544EFF0A3BB
:20170000EDF0A3EBF090FEADE04409F02225E0FFED5480C413131354014F2290FEAC7404BA
:20172000F022FF7810020506FF780802050690FFBE74FEF02290FEADE054F6F07F012200AF
:20174000000000000000000000000000000000000000000000000000000000000000000089
:201760000000000000000000005D0249020000000000000000000000008602000000000037
:20178000006B0273026803130200006F026904000012045F0314030000220480041A04832F
:2017A00000170371026C038104840400FF90F535120596E490F53BF0121D9D90F53BE0FFBB
:2017C000F582758300120471F4604B121D9D8F82121D8A12047190F53CF07E00EF2401FD17
:2017E000EE33FC121D9D8D828C83120471FD90F53CE05DFD8F828E83A3A31204714DFF9098
:20180000F53BE0F582121D8AEF1204B090F53BE02403F00217B82290F538EFF090F6C1E066
:20182000FFC41313540320E056E030E052E490F637F090FBF712052C780812051990FBF748
:2018400012054490FBF712053890F538E0FFE4FCFDFE1204E890FBF712054490F6C1E0449F
:2018600040F07F53121D0F7F44121D0F90F538E0FF120FB290F603E054FBF0E04404F022D6
:2018800090F53BEDF090F538EBF0A3EAF0A3E9F0120434FFE4FE90F53BE0FDEEC39D503C78
:2018A00090F538E0FBA3E0FAA3E0F9120434FDE4FCECC394085018EF30E70812170D64070E
:2018C000FF8005EF12170DFF0CED25E0FD80E290F539E475F0011204D20E80BAEF6480FFF9
:2018E0002290F53AEFF07FE87E0390FC86E030E009EF1F70011EEF4E70F0EDB4010990FCC4
:2019000086E0541CF0802590FC86E054FC4420F0E0543CF090F523E0B40311AF03EFC4337E
:201920003354C0FF90FC86E054FC4FF090F53AE090FC85F07F4F121D0F90F53AE0FF020F85
:20194000B2FF1F94FF1F94FF1F94FF1F94FF1F94FF1F94FF1F94FF1F94FF1F94FF1F94FFE2
:201960001F94FF1F94FF1F94FF1F94FF1F94FF1F94FF1F94FF1F94FF1F94FF1F94FF1F94C0
:20198000FF1F94FF1F94FF1F94FF1F94FF1F94FF1F94FF1F94FF1F94FF1F94FF1F94FF1F35
:2019A00094FF005AFF1FA1FF005AFF005AFF005AFF005AFF005AFF005AFF005AFF005AFFB4
:2019C000005AFF1FA4FF005AFF005AFF005AFF005AFF005AFF005AFF005AFF005AFF005ACA
:2019E000FF005AFF005AFF005AFF005AFF005AFF005AFF005AFF005AFF005AFF005AFF006E
:201A00005A90F5381216FD121DE8EF60037F002212171B90FEADE020E1F990FEAC7406F083
:201A200090FEADE020E1F990F538E090FEAAF090F539E090FEA9F090F53AE090FEA8F090B2
:201A4000F53BE090FEABF0A37402F090FEADE020E1F912171B90FEADE020E1F91217352256
:201A600090F5381216FD121DE8EF60037F002212171B90FEADE020E1F990FEAC7406F090ED
:201A8000FEADE020E1F990F538E090FEAAF090F539E090FEA9F090F53AE090FEA8F090FEE4
:201AA000AC7420F090FEADE020E1F912171B90FEADE020E1F912173522AC07EB7E00600488
:201AC0007F0680027F00EF25E0FFEE33FE75F016ECA424D7F582E5F03405F583E5822FF5E0
:201AE00082E5833EF583121D5EFB7A00AF0574017E00A807088005C333CE33CED8F9FFEEDE
:201B00005AFEEF5B4E60047F0180027F002290F54EEFF090F54EE0FFEF1205AB1B26521B0B
:201B20003B5900001B5090F54EE0FF7E00EE4401FE90F54FEEF0A3EFF0801D90F54EE0FFC2
:201B40007E00EE4401FE90F54FEEF0A3EFF0800890F54FE4F0A3E4F090F54FE0FEA3E0FFC7
:201B6000220100300200E003002C040040FF0000001300C51400021500032400FF00000194
:201B80001300C51400021500072400B0000000FF0300D00C001722FF80FF0000700100431E
:201BA0000300D9FF90F535EEF0A3EFF0E4FF90F535E0FCA3E0F582120021FDF44C6020EDE0
:201BC0004C601890F53512004F12003D740393FE8D82120021F5828C83EEF00F0F80CF229A
:201BE000C2AF784C7CF57D017B017AF579247E007F0112040EE490F524F0D2AF90F54CE068
:201C0000FFC31330E00312111490F54CE030E003121E7F021D36E4F5A890FF0DE054F04458
:201C200058F0121DA3AFA8120FB2121F51121F22121F5F121F32121F10121C7F90F551E0F4
:201C4000700790FC81E054BFF0D2AF22121F9D90F51EE0FF04F0EF5403FF90F51EEFF090DF
:201C6000F51EE0FF04F0EF5403FFEF75F003A4246DF582E4341FF58312059F1205D1229037
:201C8000F5527410F090F5517401F0C28C438602E58954F04401F589758A3B758CF6C28D40
:201CA000D2A9D28C121E6390FF01E070031213832290F68AE014601514600D14702390FBDF
:201CC000F1745AF0A374A5F07F0512181790F68A7401F090F6C1E020E0077F04121DC68049
:201CE000FE2290FF01E0B4F01E90FE817403F090FE80E054804448F07F42121D0F7F42120C
:201D00001D0F7F4C121D0F121C1612142380FBEFB40A07740D121D1A740A309811A899B8B8
:201D2000130CC2983098FDA899C298B811F63099FDC299F59922C2AF90F524E0FF90F54C70
:201D4000E0FEEF4E90F524F0E090F5277006E054F7F08004E04408F0D2AF229006F5E4936D
:201D6000FE740193F5828E83E02290F781E0C4131354032290F6C0E0C41313135401227B73
:201D80000190F5381205967BFF22758300120471FE90F53812058D8E827583002290F5357A
:201DA00002058D759BB9E4F59A75985290FC02E04440F090FC12E04440F0E0547FF090FCF1
:201DC00062E054BFF02290F553EFF090F553E0FF90FE82EFF090FE80E0FFEF5480FFEF445D
:201DE00003FF90FE80EFF022E4FF90FEAC7405F090FEADE020E1F990FEABE020E0037F009C
:201E0000220FEFB405E47F012290FC71E0FFEF4410FF90FC71EFF090F555E004F0120D1587
:201E2000120096121CB1121F8F2213000133FE0043FE00FF1500FF1000781100FF1200FFF7
:201E40001300FF14FD00FF90F533E0700E90F52FE0700890FC827404F0800090FC86E05402
:201E6000FEF0227AFF7930121F847A1E792A1217AD7AFF7900121F847A1E79340217AD9028
:201E8000F524E0C31320E0117F4F121D0F7F2C121D0F90F54CE054FEF022C0E0C083C08233
:201EA000758A3B758CF690F526E04402F0D082D083D0E03290FE817403F090FE80E0FFEF57
:201EC0005480FFEF4448FF90FE80EFF02290FE817403F090FE80E0FFEF5480FFEF4403FF4C
:201EE00090FE80EFF022F090FCA0E0FDE054FDF0A3E054F8F0AF0590FCA0EDF02274011294
:201F0000044DC39D4007E412049E7F01227F0022E4F580F590F5B0D280D282D283D292D23A
:201F2000B2227B017AFF7900121D817A1B79900217AD7B017AFC7980121D817A1B799A0206
:201F400017AD9006F5E493FE740193F5828E83E0227AFE7990121D7F7A1B79610217AD7A4D
:201F6000FF7980121D7F7A1B796E0217ADFF1F99FF0091FF0092FF1FA7EF5D60047F01802C
:201F8000027F00227B0190F5381205967BFF2290F6C1E0227EFF7FFF22121E0922120A142B
:201FA00022020FFA021BE022FFFFFFFFFFFFFFFFFFFFFFFFFFFFFFFFFFFFFFFFFFFFFFFFED
:201FC000FFFFFFFFFFFFFFFFFFFFFFFFFFFFFFFFFFFFFFFFFFFFFFFFFFFFFFFFFFFFFFFF21
:201FE000FFFFFFFFFFFFFFFFFFFFFFFFFFFFFFFFFFFFFFFFFFFFFFFFFFFFFFFFFFFFFFFF01
:20200000FFFFFFFFFFFFFFFFFFFFFFFFFFFFFFFFFFFFFFFFFFFFFFFFFFFFFFFFFFFFFFFFE0
:20202000FFFFFFFFFFFFFFFFFFFFFFFFFFFFFFFFFFFFFFFFFFFFFFFFFFFFFFFFFFFFFFFFC0
:204000003F002141000850484A30300000000000FEFEFE41FEFE4B42393330FE0000000057
:20402000109647AFA9000000000000000000000002E87C90FF99E0FF90ECA4EFF090FF98A8
:20404000E0FFEF547FFF90ECA5EFF090ECA4E0FFEF30E63290FFBDE0FF90F485EFF090FFE8
:20406000BEE0FF90F486EFF090FFBFE0FF90F487EFF012807290FF99E0FFEF54BFFF90FF08
:2040800099EFF07FFF2290F93AE0FFEF30E61690ECA4749AF090F93AE0FFEF54BFFF90F901
:2040A0003AEFF0804F90F904E0FFEF641A600A90F904E0FFEF642A703B90ECA4E0FFEF60F3
:2040C0001390ECA4E0FFEF64A0600990ECA4E0FFEFB4800690ECA47480F090FF99E0FFEF50
:2040E00054DFFF90FF99EFF090ECA4E0FFEFB43A037FFF2290F904E0FFEF641A7003024278
:20410000DD90F904E0FFEF642A70030242DD90ECA4E0FFEF20E50302425B90ECA5E0FFEFC1
:2041200012638641BF0A412D0B0000424A90ECA1E4F090ECA1E0FFEFC39408507290F900EF
:20414000E0FFEF30E73790ECA1E0FF749C2FF582E434FFF583E0FF90ECA1E0FEEEFD7C00C1
:2041600090F93CE0FEEEFB7A00EB2DFDEA3CFC74642DF58274F43CF583EFF0802A90ECA1C4
:20418000E0FF749C2FF582E434FFF583E0FF90ECA1E0FE90F93CE0FDED2EFE74022EF5824B
:2041A000E434F8F583EFF090ECA1E004F0808390F93CE02408F090F93B740DF002424A9090
:2041C000F93CE02408F090ECA1E4F090ECA1E0FFEFC39408506E90F900E0FFEF30E7339084
:2041E000ECA1E0FF7E0090F93CE0FD7C00ED2FFFEC3EFE74642FF58274F43EF583E0FF9069
:20420000ECA1E0FE749C2EF582E434FFF583EFF0802A90ECA1E0FF90F93CE0FEEE2FFF7437
:20422000062FF582E434F9F583E0FF90ECA1E0FE749C2EF582E434FFF583EFF090ECA1E04F
:2042400004F0808790F93B740DF090ECA4E0FFEF54DFFF90FF99EFF00242DD90ECA1E4F0F5
:2042600090ECA1E0FFEFC39408507290F900E0FFEF30E73790ECA1E0FF749C2FF582E434C3
:20428000FFF583E0FF90ECA1E0FEEEFD7C0090F93CE0FEEEFB7A00EB2DFDEA3CFC74642D24
:2042A000F58274F43CF583EFF0802A90ECA1E0FF749C2FF582E434FFF583E0FF90ECA1E0C5
:2042C000FE90F93CE0FDED2EFE74022EF582E434F8F583EFF090ECA1E004F0808390ECA48F
:2042E000E0FFEF20E70302465990F900E0FFEF30E76690FF98E0FF90F460EFF090FF9AE09F
:20430000FF90F462EFF090FF9BE0FF90F463EFF090FFBCE0FF90F484EFF090FFBDE0FF903E
:20432000F485EFF090FFBEE0FF90F486EFF090FFBFE0FF90F487EFF090ECA4E0FFEF547F38
:20434000FFEF700890F4617480F0802D90FF99E0FF90F461EFF0802190ECA4E0FFEF549F34
:20436000FF90F800EFF090FFBCE0FF90F801EFF07B017AF8790012DFED90F900E0FFEF5455
:204380007FFF90ECA2EFF090ECA1E4F090F939E0FF90ECA1E0FEEEC39F505A90ECA2E0FF1E
:2043A00090ECA1E0FEEE2FFF90ECA3EFF090ECA3E0FFEFC39438401390ECA1E0FF74002F7A
:2043C000F582E434F9F583E4F0802290ECA3E0FF74002FF582E434F9F583E0FF90ECA1E0EA
:2043E000FE74002EF582E434F9F583EFF090ECA1E004F0809790FF99E4F090F939E0FF9009
:20440000ECA2E0FEC3EF9EFF90F939EFF090F938E0FF90ECA2E0FEC3EF9EFF90F938EFF0B5
:2044200090F93AE0FFEF54FEFF90F93AEFF090F939E0FFEF701190F93AE0FFEF547FFF90F4
:20444000F93AEFF002465490F93AE0FFEF30E50302465490F900E0FFEF30E71E90F485E0F4
:20446000FF90FFBDEFF090F486E0FF90FFBEEFF090F487E0FF90FFBFEFF090FF93E0FFEFF6
:2044800054F4FF90ECA3EFF090ECA3E0FF90F901E0FE7401A806088002C333D8FCFEEF4EBF
:2044A000FF90ECA3EFF090ECA3E0FF90FF93EFF090F902E0FF90FF9BEFF090F903E0FF9092
:2044C000FF9AEFF090F905E0FF90FFBCEFF090F905E0FF90ECA2EFF090F905E0FFEFD394A0
:2044E00008400690ECA27408F090ECA1E4F090ECA2E0FF90ECA1E0FEEEC39F502A90ECA114
:20450000E0FF74062FF582E434F9F583E0FF90ECA1E0FE749C2EF582E434FFF583EFF09086
:20452000ECA1E004F080C790FF99E4F090F904E0FFEF641A600302460B90FF947406F0902B
:20454000FF93E0FFEF4408FF90FF93EFF0C2AF90F904E0FFEF540FFF90FF98EFF090ECA15E
:204560007480F090ECA1E0FFEF601E90ECA27401F090ECA2E0FFEF600890ECA2E014F08095
:20458000F090ECA1E014F080DA90F90EE0FF90FF9CEFF090ECA174FFF090ECA274FFF090BF
:2045A000FF99E0FFEF20E52490ECA2E0FFEF701490ECA274FFF090ECA1E014F090ECA1E07D
:2045C000FFEF600890ECA2E014F080D390ECA17401F090ECA1E0FFEFC39408502A90ECA1CD
:2045E000E0FF740E2FF582E434F9F583E0FF90ECA1E0FE749C2EF582E434FFF583EFF0909E
:20460000ECA1E004F080CBD2AF803590F904E0FFEFB42A1C90FF947406F090FF93E0FFEFE6
:204620004408FF90FF93EFF090FF98740AF0801090FF947406F090F904E0FF90FF98EFF00A
:2046400090F93AE0FFEF4480FF90F93AEFF090F93B740DF090F93CE4F0C2AF90FF80E0FF37
:20466000EF4401FF90FF80EFF0D2AF90FF99E0FF90ECA4EFF090FF98E0FFEF547FFF90EC4F
:20468000A5EFF090ECA4E0FFEF30E64490FFBDE0FF90F485EFF090FFBEE0FF90F486EFF026
:2046A00090FFBFE0FF90F487EFF012807990FF99E0FFEF54BFFF90FF99EFF0C2AF90FF8049
:2046C000E0FFEF54FEFF90FF80EFF0D2AF7FFF2290F97AE0FFEF30E61690ECA4749AF09001
:2046E000F97AE0FFEF54BFFF90F97AEFF0806190F944E0FFEF641A600A90F944E0FFEF6422
:204700002A704D90ECA4E0FFEF601390ECA4E0FFEF64A0600990ECA4E0FFEFB4800690EC52
:20472000A47480F090FF99E0FFEF54DFFF90FF99EFF090ECA4E0FFEFB43A15C2AF90FF8051
:20474000E0FFEF54FEFF90FF80EFF0D2AF7FFF2290F944E0FFEF641A700302493990F9444E
:20476000E0FFEF642A700302493990ECA4E0FFEF20E5030248B790ECA5E0FFEF12638648BD
:204780001B0A47890B000048A690ECA1E4F090ECA1E0FFEFC39408507290F940E0FFEF3067
:2047A000E73790ECA1E0FF749C2FF582E434FFF583E0FF90ECA1E0FEEEFD7C0090F97CE074
:2047C000FEEEFB7A00EB2DFDEA3CFC74642DF58274F43CF583EFF0802A90ECA1E0FF749C14
:2047E0002FF582E434FFF583E0FF90ECA1E0FE90F97CE0FDED2EFE742A2EF582E434F8F567
:2048000083EFF090ECA1E004F0808390F97CE02408F090F93B740DF00248A690F97CE02413
:2048200008F090ECA1E4F090ECA1E0FFEFC39408506E90F940E0FFEF30E73390ECA1E0FFAA
:204840007E0090F93CE0FD7C00ED2FFFEC3EFE74642FF58274F43EF583E0FF90ECA1E0FE03
:20486000749C2EF582E434FFF583EFF0802A90ECA1E0FF90F93CE0FEEE2FFF74462FF58250
:20488000E434F9F583E0FF90ECA1E0FE749C2EF582E434FFF583EFF090ECA1E004F080879A
:2048A00090F93B740DF090ECA4E0FFEF54DFFF90FF99EFF002493990ECA1E4F090ECA1E02A
:2048C000FFEFC39408507290F940E0FFEF30E73790ECA1E0FF749C2FF582E434FFF583E0C3
:2048E000FF90ECA1E0FEEEFD7C0090F97CE0FEEEFB7A00EB2DFDEA3CFC74642DF58274F4F6
:204900003CF583EFF0802A90ECA1E0FF749C2FF582E434FFF583E0FF90ECA1E0FE90F97C3A
:20492000E0FDED2EFE742A2EF582E434F8F583EFF090ECA1E004F0808390ECA4E0FFEF20D5
:20494000E703024CB590F940E0FFEF30E76690FF98E0FF90F460EFF090FF9AE0FF90F4629F
:20496000EFF090FF9BE0FF90F463EFF090FFBCE0FF90F484EFF090FFBDE0FF90F485EFF065
:2049800090FFBEE0FF90F486EFF090FFBFE0FF90F487EFF090ECA4E0FFEF547FFFEF7008C4
:2049A00090F4617480F0802D90FF99E0FF90F461EFF0802190ECA4E0FFEF549FFF90F82885
:2049C000EFF090FFBCE0FF90F829EFF07B017AF8792812DFED90FF99E4F090F940E0FFEF3E
:2049E000547FFF90ECA2EFF090ECA1E4F090F979E0FF90ECA1E0FEEEC39F505A90ECA2E023
:204A0000FF90ECA1E0FEEE2FFF90ECA3EFF090ECA3E0FFEFC39438401390ECA1E0FF744003
:204A20002FF582E434F9F583E4F0802290ECA3E0FF74402FF582E434F9F583E0FF90ECA1F4
:204A4000E0FE74402EF582E434F9F583EFF090ECA1E004F0809790F979E0FF90ECA2E0FED2
:204A6000C3EF9EFF90F979EFF090F978E0FF90ECA2E0FEC3EF9EFF90F978EFF090F97AE018
:204A8000FFEF54FEFF90F97AEFF090F979E0FFEF701190F97AE0FFEF547FFF90F97AEFF01F
:204AA000024CB090F97AE0FFEF30E503024CB090F940E0FFEF30E71E90F485E0FF90FFBD11
:204AC000EFF090F486E0FF90FFBEEFF090F487E0FF90FFBFEFF090FF93E0FFEF54F4FF9004
:204AE000ECA3EFF090ECA3E0FF90F941E0FE7401A806088002C333D8FCFEEF4EFF90ECA3D2
:204B0000EFF090ECA3E0FF90FF93EFF090F942E0FF90FF9BEFF090F943E0FF90FF9AEFF051
:204B200090F945E0FF90FFBCEFF090F945E0FF90ECA2EFF090F945E0FFEFD3940840069013
:204B4000ECA27408F090ECA1E4F090ECA2E0FF90ECA1E0FEEEC39F502A90ECA1E0FF7446F2
:204B60002FF582E434F9F583E0FF90ECA1E0FE749C2EF582E434FFF583EFF090ECA1E00408
:204B8000F080C790FF99E4F090F944E0FFEF641A6003024C6790FF947406F090FF93E0FF23
:204BA000EF4408FF90FF93EFF0C2AF90F944E0FFEF540FFF90FF98EFF090ECA17480F090B5
:204BC000ECA1E0FFEF601E90ECA27401F090ECA2E0FFEF600890ECA2E014F080F090ECA196
:204BE000E014F080DA90F94EE0FF90FF9CEFF090ECA174FFF090ECA274FFF090FF99E0FFAF
:204C0000EF20E52490ECA2E0FFEF701490ECA274FFF090ECA1E014F090ECA1E0FFEF600837
:204C200090ECA2E014F080D390ECA17401F090ECA1E0FFEFC39408502A90ECA1E0FF744E1B
:204C40002FF582E434F9F583E0FF90ECA1E0FE749C2EF582E434FFF583EFF090ECA1E00427
:204C6000F080CBD2AF803590F944E0FFEFB42A1C90FF947406F090FF93E0FFEF4408FF90D6
:204C8000FF93EFF090FF98740AF0801090FF947406F090F944E0FF90FF98EFF090F97AE05C
:204CA000FFEF4480FF90F97AEFF090F97B740DF090F97CE4F0C2AF90FF80E0FFEF54FEFF74
:204CC00090FF80EFF0D2AF7FFF2290F9C2E0F4705590FA03E0700B90FC80E054EFF07F015A
:204CE000803F90FC80E054DFF0E490EC07F090EC07E0FFC394045027746D2F12A3D4540767
:204D0000FFBF021390EC0712A4708002C333D8FCFF90F9D6E04FF090EC07E004F080CF7F29
:204D20000212E0E2801790F9C2E090F9D5F0E0246D12A3D454076402600312A4B990F9D5A2
:204D4000E0F47003024FD890F9F57401F07F7812E8B590F9D5E0FC7410A804088002C33370
:204D6000D8FCFE12A4CB4EF0746D2C12A3D4540764016003024E3190F9D9F090F9D7E07066
:204D80007490FA7DF090FA02E02413603924FD604124FD604724F5604D14600D240D704FAB
:204DA00090F9D87403F0024FBE90F9D87402F0E490F9E4F090F9E504F090FCA1E054F8F069
:204DC00012BDC0024FBE90F9E3E0543FF04440F0800A12A41890FA04F0024FBE12A41890AF
:204DE000FA7FF0024FBE90FA7D12A41B024FBE12A4E0024FBE90F9E3E0FF54C0FEBE400C48
:204E0000EF543FF090FA02E090F9E4F0E490FA7FF090F9D804F090FA04E0B4010EE4F09090
:204E2000FA02E0700690F9D87402F090F9D7024FBBE490F9D9F090F9FBE06003024F879088
:204E4000FAC2F090F692741EF090FA02E01263864E81E64E8AE74E93E84EA3E94EACEA4E5C
:204E6000B5EC4EBEEE4EC7F04ED0F24EDEF34EEEF44EF7F54F00F64F15FE4F1EFF00004F97
:204E80007712A3DD54FDF0024F7A12A3DD4402F0024F7A90F9FB12A41B90F9E6E04408F08A
:204EA000024F7A90F9D87404F0024F7A12A3DD4440F0024F7A12A3DD54DFF0024F7A12A38D
:204EC000DD4420F0024F7A12A3DD4410F0024F7A90F9C77401F090F9D804F0024F7A90F9D7
:204EE000FB12A41B90F9E6E04404F0024F7A12A3DD4401F0024F7A12A3DD54FEF0024F7A63
:204F000012A3DD4480FFF0E412A456EF54FD90F9E6F0024F7A90FAC212A41B024F7A90F684
:204F2000927464F090F9D87403F090F9F27401F0E490F9E6F090EC07F090EC07E0FFC39400
:204F400004501E746D2F12A3D4FF5407FEBE020990EC0712A3C24430F090EC07E004F080F0
:204F6000D812A406E412A45290F9E0E0C45403FFBF0207E4F0800312A4E090F9C2E0F4700A
:204F80003D90F9F0F0803790F9E6E0FF30E30F90FA02E090F9E9F0EF54F790F9E6F090F954
:204FA000E6E0FF30E20F90FA02E090F9EAF0EF54FB90F9E6F012A4E090F9FBE014F090F918
:204FC000D512A4708002C333D8FCFF90EC07F090FEE2E0540F4FF02290F9C2E0B4FF0B908B
:204FE000FA03E07FFC700502E8C97FFE12E828227B017AFE790012DEB47AB3799202CA5704
:205000005AA501430AFF03FF03FF06FF05FF05E8CD634344FF323C44FF7759FF7457FFAE9C
:20502000FF000000FF00FF090D004208010001E00064FFFFFF64FFFFFF6964FFFFFF90EC29
:205040003BEFF090EC3CEDF090EC3DEBF090EC46E4F090EC3EE0FFEF547FFFEFC394024095
:205060001590EC3EE0FFEF547FFFEFD3940D500690EC467401F090EC3EE0FFEF641A600972
:2050800090EC3EE0FFEFB42A0690EC467401F090EC3EE0FFEF540FFFEFB40B0590EC3FE441
:2050A000F090EC3BE0FFEFC39402400302544F90EC46E0FFEF700302581090EC3FE0FF7EB5
:2050C0000090F939E0FD7C00ED2FFFEC3EFEEF2406FFEE3400FED3EF9438EE648094804086
:2050E0001590F93AE0FFEF4481FF90F93AEFF090F461749AF02290F93AE0FFEF54FEFF902D
:20510000F93AEFF090EC3FE0FFEF2406FF90F939E02FF090EC3FE0FFEF2406FF90F938E0B7
:20512000FE74002EF582E434F9F583EFF090F93AE0FFEF30E11790F938E0FF74002FF5827D
:20514000E434F9F583E0FFEF4480FFEFF090EC3BE0FF90F938E0FE74012EF582E434F9F501
:2051600083EFF090EC3CE0FF90F938E0FE74022EF582E434F9F583EFF090EC3DE0FF90F9F3
:2051800038E0FE74032EF582E434F9F583EFF090EC3EE0FF90F938E0FE74042EF582E43408
:2051A000F9F583EFF090EC3FE0FF90F938E0FE74052EF582E434F9F583EFF090F938E0241B
:2051C00006F090EC43E4F090EC3FE0FF90EC43E0FEEEC39F503590EC4012636890EC43E002
:2051E000FF8F82758300126044FF90EC43E0FE90F938E0FDED2EFE74002EF582E434F9F57F
:2052000083EFF090EC43E004F080BC90EC3FE0FF90F938E02FF090F93AE0FFEF30E5030258
:20522000581090FF95E0FFEF30E70302544090F93AE0FFEF30E70302544090F93AE0FFEF92
:2052400030E11E90F485E0FF90FFBDEFF090F486E0FF90FFBEEFF090F487E0FF90FFBFEFD0
:20526000F090FF93E0FFEF54F4FF90EC45EFF090EC45E0FF90F901E0FE7401A806088002B2
:20528000C333D8FCFEEF4EFF90EC45EFF090EC45E0FF90FF93EFF090F902E0FF90FF9BEF46
:2052A000F090F903E0FF90FF9AEFF090F905E0FF90FFBCEFF090F905E0FF90EC44EFF09058
:2052C000F905E0FFEFD39408400690EC447408F090EC43E4F090EC44E0FF90EC43E0FEEE64
:2052E000C39F502A90EC43E0FF74062FF582E434F9F583E0FF90EC43E0FE749C2EF582E476
:2053000034FFF583EFF090EC43E004F080C790FF99E4F090F904E0FFEF641A60030253F2AA
:2053200090FF947406F090FF93E0FFEF4408FF90FF93EFF0C2AF90F904E0FFEF540FFF90E6
:20534000FF98EFF090EC437480F090EC43E0FFEF601E90EC447401F090EC44E0FFEF60080E
:2053600090EC44E014F080F090EC43E014F080DA90F90EE0FF90FF9CEFF090EC4374FFF07A
:2053800090EC4474FFF090FF99E0FFEF20E52490EC44E0FFEF701490EC4474FFF090EC43D7
:2053A000E014F090EC43E0FFEF600890EC44E014F080D390EC437401F090EC43E0FFEFC3A9
:2053C0009408502A90EC43E0FF740E2FF582E434F9F583E0FF90EC43E0FE749C2EF582E453
:2053E00034FFF583EFF090EC43E004F080CBD2AF803590F904E0FFEFB42A1C90FF9474061D
:20540000F090FF93E0FFEF4408FF90FF93EFF090FF98740AF0801090FF947403F090F90424
:20542000E0FF90FF98EFF090F93CE4F090F93AE0FFEF4480FF90F93AEFF090F93B740DF0C3
:2054400090F93AE0FFEF54FDFF90F93AEFF02290EC46E0FFEF700302581090FF80E0FFEF5D
:205460004401FF90FF80EFF090EC3FE0FF7E0090F979E0FD7C00ED2FFFEC3EFEEF2406FF2C
:20548000EE3400FED3EF9438EE64809480401790F97AE0FFEF4481FF90F97AEFF090F461C5
:2054A000749AF002580290F97AE0FFEF54FEFF90F97AEFF090EC3FE0FFEF2406FF90F979DA
:2054C000E02FF090EC3FE0FFEF2406FF90F978E0FE74402EF582E434F9F583EFF090F97A78
:2054E000E0FFEF30E11790F978E0FF74402FF582E434F9F583E0FFEF4480FFEFF090EC3BCC
:20550000E0FF90F978E0FE74412EF582E434F9F583EFF090EC3CE0FF90F978E0FE74422EB1
:20552000F582E434F9F583EFF090EC3DE0FF90F978E0FE74432EF582E434F9F583EFF090C1
:20554000EC3EE0FF90F978E0FE74442EF582E434F9F583EFF090EC3FE0FF90F978E0FE74B1
:20556000452EF582E434F9F583EFF090F978E02406F090EC43E4F090EC3FE0FF90EC43E012
:20558000FEEEC39F503590EC4012636890EC43E0FF8F82758300126044FF90EC43E0FE9016
:2055A000F978E0FDED2EFE74402EF582E434F9F583EFF090EC43E004F080BC90EC3FE0FF5A
:2055C00090F978E02FF090F97AE0FFEF30E50302580290FF95E0FFEF30E7030257F490F9A4
:2055E0007AE0FFEF30E7030257F490F97AE0FFEF30E11E90F485E0FF90FFBDEFF090F486DF
:20560000E0FF90FFBEEFF090F487E0FF90FFBFEFF090FF93E0FFEF54F4FF90EC45EFF09001
:20562000EC45E0FF90F941E0FEEE5401FE7401A806088002C333D8FCFEEF4EFF90EC45EF10
:20564000F090EC45E0FF90FF93EFF090F942E0FF90FF9BEFF090F943E0FF90FF9AEFF090C3
:20566000F945E0FF90FFBCEFF090F945E0FF90EC44EFF090F945E0FFEFD39408400690ECCA
:20568000447408F090EC43E4F090EC44E0FF90EC43E0FEEEC39F502A90EC43E0FF74462F3A
:2056A000F582E434F9F583E0FF90EC43E0FE749C2EF582E434FFF583EFF090EC43E004F0B8
:2056C00080C790FF99E4F090F944E0FFEF641A60030257A690FF947406F090FF93E0FFEF8F
:2056E0004408FF90FF93EFF0C2AF90F944E0FFEF540FFF90FF98EFF090EC437480F090ECCB
:2057000043E0FFEF601E90EC447401F090EC44E0FFEF600890EC44E014F080F090EC43E02C
:2057200014F080DA90F94EE0FF90FF9CEFF090EC4374FFF090EC4474FFF090FF99E0FFEF10
:2057400020E52490EC44E0FFEF701490EC4474FFF090EC43E014F090EC43E0FFEF600890C3
:20576000EC44E014F080D390EC437401F090EC43E0FFEFC39408502A90EC43E0FF744E2FA9
:20578000F582E434F9F583E0FF90EC43E0FE749C2EF582E434FFF583EFF090EC43E004F0D7
:2057A00080CBD2AF803590F944E0FFEFB42A1C90FF947406F090FF93E0FFEF4408FF90FF7C
:2057C00093EFF090FF98740AF0801090FF947403F090F944E0FF90FF98EFF090F97CE4F01D
:2057E00090F97AE0FFEF4480FF90F97AEFF090F97B740DF090F97AE0FFEF54FDFF90F97A9A
:20580000EFF090FF80E0FFEF54FEFF90FF80EFF02290EC20EFF090EC21ECF0A3EDF090EC7B
:2058200023EBF090EC23E0FFEF1263865842005842015AB8025AB8035CFF045CFF050000E5
:205840005F1090EC20E0FFEF7003025A5A90EC21E0FEA3E0FFD3EF940EEE9400501190EC86
:2058600024740CF090EC28E4F0A374FAF0807190EC21E0FEA3E0FFD3EF9440EE94005012B3
:2058800090EC247408F090EC28740FF0A374A0F0804E90EC21E0FEA3E0FFD3EF94A0EE94FB
:2058A0000F501190EC247404F090EC287440F0A3E4F0802C90EC24E4F090EC2874FAF0A3EC
:2058C000E4F090EC21E0FEA3E0FFEEC4F854F0C868FEEFC4540F48FF90EC21EEF0A3EFF081
:2058E00090EC23E0FF90EC25EFF090EC25E0FFEF25E025E0FF90EC25EFF090EC24E0FF90A3
:20590000EC25E0FEEFA806088002C333D8FCFF90EC24EFF090EC25E0FF74F0A8070880020C
:20592000C313D8FCFF90FE00E0FEEF5EFF90EC26EFF090FE00E0FFEF5411FF90EC26E0FE45
:20594000EF4EFF90EC26EFF090EC26E0FF90EC24E0FEEE4FFF90FE00EFF090EC23E0FF90D4
:20596000EC25EFF090EC25E0FFEF25E0FF90EC25EFF090EC21E0FCA3E0FD90EC28E0FEA326
:20598000E0FF1260D9EF24FFFFEE34FFFE90EC28EEF0A3EFF090EC29E0FF90EC25E0FE7432
:2059A000022EF582E434FEF583EFF090EC20E0FF7E0090EC28E0FCA3E0FD1260C790EC28FD
:2059C000EEF0A3EFF090EC28E0FEA3E0FF7C007D641260D990EC28EEF0A3EFF090EC29E032
:2059E000FF90EC25E0FE74012EF582E434FEF583EFF090EC23E0FFEF701090FE00E0FFEF59
:205A00004401FF90FE00EFF0800E90FE00E0FFEF4410FF90FE00EFF090EC23E0FFEF701D31
:205A200090FC01E0FFEF4480FF90FC01EFF090FC11E0FFEF547FFF90FC11EFF02290FC0273
:205A4000E0FFEF4401FF90FC02EFF090FC12E0FFEF54FEFF90FC12EFF02290EC23E0FFEFFE
:205A6000702B90FC01E0FFEF547FFF90FC01EFF090FC21E0FFEF547FFF90FC21EFF090FC8D
:205A800011E0FFEF4480FF90FC11EFF02290FC02E0FFEF54FEFF90FC02EFF090FC22E0FF1F
:205AA000EF54FEFF90FC22EFF090FC12E0FFEF4401FF90FC12EFF02290EC20E0FFEF705F91
:205AC00090EC23E0FFEFB4022B90FC02E0FFEF54FBFF90FC02EFF090FC22E0FFEF54FBFF97
:205AE00090FC22EFF090FC12E0FFEF4404FF90FC12EFF02290FC02E0FFEF54F7FF90FC0293
:205B0000EFF090FC22E0FFEF54F7FF90FC22EFF090FC12E0FFEF4408FF90FC12EFF022906D
:205B2000EC20E0FFEF6464705F90EC23E0FFEFB4022B90FC02E0FFEF54FBFF90FC02EFF08F
:205B400090FC22E0FFEF4404FF90FC22EFF090FC12E0FFEF4404FF90FC12EFF02290FC0215
:205B6000E0FFEF54F7FF90FC02EFF090FC22E0FFEF4408FF90FC22EFF090FC12E0FFEF449C
:205B800008FF90FC12EFF02290EC23E0FFEF24FEFF90EC27EFF090EC27E0FF75F010EF90D9
:205BA000FE2012635CE0FFEF54CFFFEFF090EC27E0FF75F010EF90FE2012635CE0FFEF44B0
:205BC00030FFEFF090EC21E0FEA3E0FFAB07AA06E4F9F87F007EC87DAF7C0012621D90EC09
:205BE0002A12631F90EC2A12630778081262CDEF54FFFFEE5400FEED5400FDEC5400FC9079
:205C0000EC27E0FE75F010EE90FE2A12635CEFF090EC2A126307EF54FFFFEE5400FEED54E4
:205C200000FDEC5400FC90EC27E0FE75F010EE90FE2B12635CEFF090EC2A126307EF54FF7A
:205C4000FFEE54FFFEED5400FDEC5400FCAD07AC0690EC20E0FF7E001260C77C007D641285
:205C600060D990EC28EEF0A3EFF090EC28E0FEA3E0FFD3EF9400EE9410400A90EC28740F8A
:205C8000F0A374FFF090EC28E0FEA3E0FFEEFF7E0090EC27E0FE75F010EE90FE2612635C36
:205CA000EFF090EC29E0FFEF54FFFF90EC27E0FE75F010EE90FE2712635CEFF090EC23E078
:205CC000FFEFB4021D90FC02E0FFEF4404FF90FC02EFF090FC12E0FFEF54FBFF90FC12EFAC
:205CE000F02290FC02E0FFEF4408FF90FC02EFF090FC12E0FFEF54F7FF90FC12EFF0229099
:205D0000EC20E0FFEF7003025EB290EC247440F090EC2A12632B000FF5F090EC23E0FFEF39
:205D2000B4041490FE06E0FF90EC24E0FEEF4EFF90FE06EFF0801290FE07E0FF90EC24E071
:205D4000FEEF4EFF90FE07EFF090EC2A126307C004C005C006C00790EC21E0FEA3E0FFABB5
:205D600007AA06E4F9F8D007D006D005D00412621D90EC2A12631F90EC2A126307780112C9
:205D800062CD90EC2A12631F90EC23E0FFEFB4041C90EC2A12630778081262CD90FE0AEFEF
:205DA000F090EC2DE0FF90FE0BEFF0801A90EC2A12630778081262CD90FE0EEFF090EC2D52
:205DC000E0FF90FE0FEFF090EC20E0FF7E00E4FCFD90EC2A12631312619290EC2A12631F25
:205DE00090EC2A1263077B647A007900780012621D90EC2A12631F90EC2CE0FEA3E0FF90D4
:205E0000EC28EEF0A3EFF090EC23E0FFEFB4041D90EC28E0FEA3E0FFEEFF7E0090FE08EFD8
:205E2000F090EC29E0FF90FE09EFF0801B90EC28E0FEA3E0FFEEFF7E0090FE0CEFF090EC79
:205E400029E0FF90FE0DEFF090EC23E0FFEFB4041090FE06E0FFEF4480FF90FE06EFF08073
:205E60000E90FE07E0FFEF4480FF90FE07EFF090EC23E0FFEFB4041D90FC02E0FFEF440296
:205E8000FF90FC02EFF090FC12E0FFEF54FDFF90FC12EFF02290FC03E0FFEF4402FF90FC0D
:205EA00003EFF090FC13E0FFEF54FDFF90FC13EFF02290EC23E0FFEFB4042B90FC02E0FFE6
:205EC000EF54FDFF90FC02EFF090FC22E0FFEF54FDFF90FC22EFF090FC12E0FFEF4402FF0C
:205EE00090FC12EFF02290FC03E0FFEF54FDFF90FC03EFF090FC23E0FFEF54FDFF90FC236C
:205F0000EFF090FC13E0FFEF4402FF90FC13EFF022E709F608DFFA8046E709F208DFFA8080
:205F20003E88828C83E709F0A3DFFA8032E309F608DFFA8078E309F208DFFA807088828CFC
:205F400083E309F0A3DFFA806489828A83E0A3F608DFFA805889828A83E0A3F208DFFA804A
:205F60004C80D280FA80C680D4806980F28033801080A680EA809A80A880DA80E280CA8079
:205F80003389828A83ECFAE493A3C8C582C8CCC583CCF0A3C8C582C8CCC583CCDFE9DEE728
:205FA000800D89828A83E493A3F608DFF9ECFAA9F0EDFB2289828A83ECFAE0A3C8C582C86B
:205FC000CCC583CCF0A3C8C582C8CCC583CCDFEADEE880DB89828A83E493A3F208DFF98029
:205FE000CC88F0EF60010E4E60C388F0ED2402B4040050B9F582EB2402B4040050AF2323BD
:20600000458223905F6173BB010689828A83E0225002E722BBFE02E32289828A83E493222B
:20602000BB010B89828A83F8E0C828F0E822500327C722BBFE07F8E3C828F3E8228A83893E
:2060400082E49322BB010CE58229F582E5833AF583E0225006E92582F8E622BBFE06E92587
:2060600082F8E222E58229F582E5833AF583E49322BB010989828A83F8E028F0225003277F
:20608000F722BBFE05F8E328F3228A838982F8E4932822BB010689828A83F0225002F722E9
:2060A000BBFE01F322F8BB010DE58229F582E5833AF583E8F0225006E92582C8F622BBFEB6
:2060C00005E92582C8F222EF8DF0A4A8F0CF8CF0A428CE8DF0A42EFE22BC000BBE0029EFB6
:2060E0008DF084FFADF022E4CCF875F008EF2FFFEE33FEEC33FCEE9DEC984005FCEE9DFE9C
:206100000FD5F0E9E4CEFD22EDF8F5F0EE8420D21CFEADF075F008EF2FFFED33FD40079886
:206120005006D5F0F222C398FD0FD5F0EA22C5F0F8A3E028F0C5F0F8E582158270021583FB
:20614000E038F022A3F8E0C5F025F0F0E582158270021583E0C838F0E822BB0110E58229A2
:20616000F582E5833AF583E0F5F0A3E0225009E92582F886F008E622BBFE0AE92582F8E290
:20618000F5F008E222E5832AF583E993F5F0A3E99322E88FF0A4CC8BF0A42CFCE98EF0A439
:2061A0002CFC8AF0EDA42CFCEA8EF0A4CDA8F08BF0A42DCC3825F0FDE98FF0A42CCD35F087
:2061C000FCEB8EF0A4FEA9F0EB8FF0A4CFC5F02ECD39FEE43CFCEAA42DCE35F0FDE43CFC78
:2061E0002275F008758200EF2FFFEE33FECD33CDCC33CCC58233C5829BED9AEC99E58298DE
:20620000400CF582EE9BFEED9AFDEC99FC0FD5F0D6E4CEFBE4CDFAE4CCF9A88222B800C1BF
:20622000B90059BA002DEC8BF084CFCECDFCE5F0CBF97818EF2FFFEE33FEED33FDEC33FC77
:20624000EB33FB10D703994004EB99FB0FD8E5E4F9FA227818EF2FFFEE33FEED33FDEC3312
:20626000FCC933C910D7059BE99A4007EC9BFCE99AF90FD8E0E4C9FAE4CCFB2275F010EF6E
:206280002FFFEE33FEED33FDCC33CCC833C810D7079BEC9AE899400AED9BFDEC9AFCE899A4
:2062A000F80FD5F0DAE4CDFBE4CCFAE4C8F922EF4BFFEE4AFEED49FDEC48FC22EB9FF5F0B8
:2062C000EA9E42F0E99D42F0E89C45F022E8600FECC313FCED13FDEE13FEEF13FFD8F12274
:2062E000E86010ECA2E713FCED13FDEE13FEEF13FFD8F022E8600FEFC333FFEE33FEED3361
:20630000FDEC33FCD8F122E0FCA3E0FDA3E0FEA3E0FF22E0F8A3E0F9A3E0FAA3E0FB22EC9C
:20632000F0A3EDF0A3EEF0A3EFF022A8828583F0D083D08212634212634212634212634225
:20634000E473E493A3C583C5F0C583C8C582C8F0A3C583C5F0C583C8C582C822A42582F59F
:2063600082E5F03583F58322E0FBA3E0FAA3E0F922EBF0A3EAF0A3E9F022E493FB7401930E
:20638000FA740293F922D083D082F8E4937012740193700DA3A393F8740193F5828883E485
:2063A000737402936860EFA3A3A380DF8A838982E47390EC7EEFF090EC7FEDF090F86FE06B
:2063C000FFEFB4011190EC7EE0FF7D0012788A90EC82EFF0801590EC7EE0FF90EC7FE0FE7B
:2063E000EE04FD12788A90EC82EFF090EC82E0FFEF60037F012290EC7EE0FFEFC394B340DA
:20640000030267C790EC7EE0FFEFC39480507090EC7EE0FFEF12638664281164341264403C
:2064200014644C590000645690EC7FE0FD7F2012D9F7802290EC7FE0FD7F4012D9F780167B
:2064400090EC7FE0FD7F8012D9F7800A90EC7FE0FD7F0412D9F790EC7FE0FFEF70167FF0FE
:2064600012D2A390FA4DE0FFEFB401087F0112DC967F002290EC7EE0FF12D2A30267C7906E
:20648000EC7EE0FFEF126386649E8064AA8164B68264C28564CE8664DA87000064E490EC30
:2064A0007FE0FD7F4012D9F7803A90EC7FE0FD7F8012D9F7802E90EC7FE0FD7F2012D9F765
:2064C000802290EC7FE0FD7F0412D9F7801690EC7FE0FD7F0812D9F7800A90EC7FE0FD7F25
:2064E0000212D9F790EC7EE0FFEF12638666318865008965AE9665C79765E39F000066E04F
:2065000090FAC6E0FFEF20E70990FAC6E0FFEF30E34E90EC7FE0FFEF70030267C790EC8066
:20652000E4F090EC80E0FFEF9086CD93FFEF70030267C790EC80E0FFEF9086CD93FF12D293
:20654000A390FA4DE0FFEFB4010E90EC80E0FFEF04FF12DC967F002290EC80E004F080C22C
:2065600090EC7FE0FFEF70030267C790EC80E4F090EC80E0FFEF9086C493FFEF70030267DE
:20658000C790EC80E0FFEF9086C493FF12D2A390FA4DE0FFEFB4010E90EC80E0FFEF04FF42
:2065A00012DC967F002290EC80E004F080C290EC7FE0FFEF700890FA60E4F00267C790FAEB
:2065C000607401F00267C790EC7FE0FFEF70030267C790FA60E0FFEF6401FF90FA60EFF075
:2065E0000267C790EC7FE0FFEF70030267C790EC80E4F090EC80E0FFEF9086CD93FFEF7091
:20660000030267C790EC80E0FFEF9086CD93FF12D2A390FA4DE0FFEFB4010E90EC80E0FF3E
:20662000EF04FF12DC967F002290EC80E004F080C290FAC6E0FFEF54EEFFEF60030266CE4A
:2066400090EC7FE0FFEF704390EC80E4F090EC80E0FFEF9086D893FFEF602D90EC80E0FF4D
:20666000EF9086D893FF12D2A390FA4DE0FFEFB4010E90EC80E0FFEF04FF12DC967F0022CA
:2066800090EC80E004F080C57F012290EC80E4F090EC80E0FFEF9086D393FFEF602D90EC36
:2066A00080E0FFEF9086D393FF12D2A390FA4DE0FFEFB4010E90EC80E0FFEF04FF12DC96D1
:2066C0007F002290EC80E004F080C57F012290FAC6E0FFEF5422FFEF600690EC7E7484F098
:2066E00090EC7EE0FFEF2480FFEF25E0FF90EC80EFF090EC81E4F090EC80E0FFEF90865C54
:2067000093FFEF70030267C790EC81E0FFEFC3940240030267C790EC7FE0FFEF602990ECF0
:2067200080E0FFEF90865C93FF12D2A390FA4DE0FFEF640160030267B890EC81E0FFEF0423
:20674000FF12DC967F002290EC80E0FFEF90865C93FFEFB4E02090EC80E0FFEF90865C93D5
:20676000FF12D2A390FA4DE0FFEF6401704A7F0112DC967F00227FF012D2A390FA4DE0FF7E
:20678000EFB4010E90EC81E0FFEF04FF12DC967F002290EC80E0FFEF90865C93FF12D2A3FF
:2067A00090FA4DE0FFEFB4010F90EC81E0FFEF2402FF12DC967F002290EC80E004F090EC0F
:2067C00081E004F00266F77F012290ED0EEFF090ED0EE0FF90F9D5E0FEEE6F60030268B871
:2067E00090F9D9E0FFEF70030268A290F9C3E0FFEF6403705B90FA08E0FF90ED0EE0FB7D4A
:206800000212C31290FEE17401F090FEE0E0FFEF540FFF90F9D6E0FEEF4EFF90FEE0EFF057
:2068200012E81A90F9D574FFF090F9C274FFF090F9F0E4F090F9F2E4F090F9E5E4F090F96E
:20684000D8E4F090F9D9E4F07D027F0112E2EA2290ED0EE0FD7F02126BB290F783E0FFEF67
:20686000131313541FFFEF30E003026BB190F9D9E0FFEF6003026BB190F9D5E0FFEF64FF0D
:206880006003026BB190F9D6E0FFEF547FFF90F9D6EFF090FEE0E0FFEF547FFF90FEE0EFCF
:2068A000F0227F0A12E0957F5512E0957F0A12E09590FEE17401F02290FADDE0FFEF60358B
:2068C00090FADDE014F090FEE17401F090FADDE0FFEF6003026BB17D027F0112E2EA90FE78
:2068E000E0E0FFEF540FFF90F9D6E0FEEF4EFF90FEE0EFF02212E48790F9F47402F090F9B7
:20690000C3E0FFEF6403702C90FADEE0FFEF600E90FEE0E0FFEF540FFF90FEE0EFF090FACA
:2069200008E0FF90ED0EE0FB7D0212C31290FEE17401F02290F9E6E0FFEF20E003026BAB56
:2069400090FC80E0FFEF30E503026B6E90F9E0E0FFEFC4540FFFEF5403FFEFB4020312C747
:206960009C90ED0EE0FF90F9F3EFF090F9F57403F07F0A12E8B590F9F0E0FFEF6003026A83
:206980003090FA08E0FFEF5407FF90ED0EE0FE74EB2EF582E434F9F583EFF090ED0FE4F0D8
:2069A00090ED0FE0FFEFC39404502690FA08E0FF90ED0FE0FE74EB2EF582E434F9F583E064
:2069C000FEEF4EFF90FA08EFF090ED0FE004F080CF90F9D5E0FFEFB4FF3A90FADEE0FFEF0E
:2069E000702490ED0EE0FF7410A807088002C333D8FCFF90FEE0E0FEEE540FFEEF4EFF90AC
:206A0000FEE0EFF0800E90FEE0E0FFEF540FFF90FEE0EFF090FA08E0FF90ED0EE0FB7D02EA
:206A200012C31290F9F0E004F090FEE17401F02290F9F0E004F090ED0EE0FF746D2FF582EE
:206A4000E434FAF583E0FFEF5470FFEFC4540FFF90F9F0E0FEEF6E6003026B157D027F016E
:206A600012E2EA90F9F5E4F090F9D5E0FFEFB4FF2E90FADEE0FFEF701890FEE0E0FFEF548B
:206A80000FFF90F9D6E0FEEF4EFF90FEE0EFF0800E90FEE0E0FFEF540FFF90FEE0EFF09019
:206AA000F9F1E0FF90F9F0E0FEEE6F601D90FA08E0FF90ED0EE0FB7D0212C31290ED0EE034
:206AC000FB7D027F0012C312803F90F9C5E0FFEFB4022790ED0EE0FF746D2FF582E434FA1B
:206AE000F583E0FFEF5478FFEFB4400E90FA08E0FFEF540FFF90FA08EFF090FA08E0FF9060
:206B0000ED0EE0FB7D0212C31290F9F0E4F090FEE17401F02290F9D5E0FFEFB4FF3A90FA53
:206B2000DEE0FFEF702490ED0EE0FF7410A807088002C333D8FCFF90FEE0E0FEEE540FFE8A
:206B4000EF4EFF90FEE0EFF0800E90FEE0E0FFEF540FFF90FEE0EFF090FA08E0FF90ED0E37
:206B6000E0FB7D0212C31290FEE17401F02290FA08E0FF90F9E1EFF090ED0EE0FFEFC433D4
:206B80003354C0FFEF4420FF90F9E0EFF090F9D5E0FFEFB4FF0E90FEE0E0FFEF540FFF90FA
:206BA000FEE0EFF090FEE17401F02290FEE17401F02290ECEAEFF090ECEBEDF090F9F5E045
:206BC000FFEF6401705090FA08E0FFEF64FE603190FA08E0FFEF64FC602790FA08E0FFEFA8
:206BE00064FA601D90FA08E0FFEF64EE601390FA7DE0FFEF6401600990FAC2E0FFEFB40123
:206C00000890ECEC7401F0803C90ECECE4F090FEE17401F0802F90F9F5E0FFEFB402209072
:206C2000FA08E0FFEFB4FA1790F9D8E0FFEF6404600D90ECECE4F090FEE17401F080069095
:206C4000ECEC7401F090ECECE0FFEF64016003026F9590FA08E0FFEF64FC600990FA08E058
:206C6000FFEFB4FE3290F9F5E0FFEFB4012990F9F2E0FFEFB4011990F9DAE0FFEF540FFF6E
:206C800074DC2FF582E434F9F58374FEF012E81A90F9D9E4F0800690F9D9E014F090F9D59F
:206CA000E0FF746D2FF582E434FAF583E0FFEF20E71D90F9C2E0FFEFB4FF1490ECEAE0FFCD
:206CC000EF6402705590F88BE0FFEF6402704B90F9F5E0FFEFB4FF2290F9F2E0FFEF6401C9
:206CE000603290F9DAE0FFEF540FFF74DC2FF582E434F9F58374FAF0801A90FA08E0FF90F7
:206D0000F9DAE0FEEE540FFE74DC2EF582E434F9F583EFF090F9DAE004F090F9D9E0FFEFAF
:206D20006003026F2990F9F5E4F090ECEAE0FFEFB4011790F9E5E0FFEFB4010690F9E5742B
:206D400002F07F0112E0E2026E2390F9C2E0FFEF64FF601490F9D574FFF090F9C274FFF0FB
:206D600090F9F0E4F0026E2390F9F2E0FFEFB4010690F9F27402F090F9C7E0FFEF6401606B
:206D800003026E1E90FA08E0FFEF6403704290F9D5E0FF746D2FF582E434FAF583E0FFEFCD
:206DA0005487FFEFF090F9D5E0FF746D2FF582E434FAF583E0FFEF4440FFEFF090F9F174AE
:206DC00004F090F9C5E0FFEF700690F9C57401F090FA08E0FFEF6404704490F9D5E0FF744D
:206DE0006D2FF582E434FAF583E0FFEF5487FFEFF090F9D5E0FF746D2FF582E434FAF58321
:206E0000E0FFEF4448FFEFF090F9F17404F090F9C5E0FFEF6402600690F9C57402F07F023B
:206E200012E0E290F9D5E0FFEF64FF602290F9E5E0FFEFB4020690F9E57403F090F9F2E045
:206E4000FFEFB4020690F9F27403F012C62A2290F9C7E0FFEFB4012390F9C7E4F090F9C51A
:206E6000E0FFEFB4020690F9DD7404F090F9C5E0FFEFB4010690F9DD7403F090F9F2E0FFBC
:206E8000EF700B90F9E5E0FFEF700312E81A90FEE0E0FFEF540FFF90FEE0EFF090ECEAE094
:206EA000FF90FABFEFF090ECEBE0FF90FAC0EFF090FC86E0FFEF20E02A90F9DBE0FF74DC9F
:206EC0002FF582E434F9F583E0FF90ECEAE0FD90ECEBE0FB12C31290F9DBE004F090F9DA9D
:206EE000E014F090F9F2E0FFEF6403600990F9E5E0FFEFB4031C90FEE0E0FFEF540FFF9058
:206F0000F9D6E0FEEF4EFF90FEE0EFF090FEE17401F090F9F2E4F090F9E5E4F090F9D8E491
:206F2000F07D027F0112E2EA2290F9F2E0FFEF6401600A90F9E5E0FFEF6401704C90F9F56F
:206F4000E0FFEF6401704290F9DBE0FF74DC2FF582E434F9F583E0FF90ECEAE0FD90ECEB01
:206F6000E0FB12C31290ECEAE0FF90FABFEFF090ECEBE0FF90FAC0EFF090F9DAE014F0121A
:206F8000E81A7D027F0112E2EA90F9F57402F090FEE17401F0220000000000000000000038
:206FA000000000000000000000000000FC20FC10FC60FC00FC50FC40FC30FF30FF40FF50E0
:206FC000FF60FC21FC11FC61FC01FC51FC41FC31FF31FF41FF51FF61FC22FC12FC62FC026F
:206FE000FC52FC42FC32FF32FF42FF52FF62FC23FC13FC63FC03FC53FC43FC33FF33FF43F6
:20700000FF53FF63FC24FC14FC64FC04FC54FC44FC34FF34FF44FF54FF64FC25FC15FC65AD
:20702000FC05FC55FC45FC35FF35FF45FF55FF65FC26FC16FC66FC06FC56FC46FC36FF36C9
:20704000FF46FF56FF66FC27FC17FC67FC07FC57FC47FC37FF37FF47FF57FF67FC28FC185C
:20706000FC68FC08FC58FC48FC38FF38FF48FF58FF68FC29FC19FC69FC09FC59FC49FC392D
:20708000FF39FF49FF59FF69FC2AFC1AFC6AFC0AFC5AFC4AFC3AFF3AFF4AFF5AFF6AFC2BCB
:2070A000FC1BFC6BFC0BFC5BFC4BFC3BFF3BFF4BFF5BFF6BFC2CFC1CFC6C00000000000086
:2070C000FC3C0000000000000000FC2DFC1DFC6D000000000000FC3D000000000000000094
:2070E000FC2EFC1EFC6E000000000000FC3E0000000000000000FC2FFC1FFC6F00000000F7
:207100000000FC3FFF3CFF4CFF5CFF6C000000000000000000000000FED100000000000019
:207120000000000000000000000000000000FED30000000000000000FED2000000000000AE
:2071400000000000F6320000000000000000FED400000000000000000000F633000000000C
:207160000000000000FF0000000000000000000000000000000000000000FF180061FF1584
:207180000005FF100000FF110000FF120000FF130000FEA40000FE900020FE910030FE9209
:2071A00000FFFE93002CFE940020FE9500FDFCA10000000000000000000000FF00004000F5
:2071C0000000000000001900000000006D030000000061041B02000000004B005A045B029E
:2071E00020040000000000000000000000000000000000000000000000000000000000006B
:207200000000000000000000000000000000000000000000000000004C0E4D0E00000000B9
:20722000520E530E1F001E0A00FF90FA0AE0FFEF54FDFF90FA0AEFF090FA06E0FFEFB4020E
:207240001290FA07E0FFEF20E70990F9D5E0FFEFB4FF0B90FADDE0FFEF70030274B97D026D
:207260007F0112E2EA90FADDE0FFEF604D90FA0AE0FFEF1313543FFFEF30E0217F5412E0CF
:207280009590FADDE4F090FEE0E0FFEF540FFF90F9D6E0FEEF4EFF90FEE0EFF0227F3212D5
:2072A000E8B590EC6FE0FFEF640160030274B97F4312E0957F2C12E0952290F9D5E0FF7433
:2072C00010A807088002C333D8FCFF90FEE0E0FEEE540FFEEF4EFF90FEE0EFF090F9D8E037
:2072E000FF90F9D9EFF090FA0AE0FFEF1313543FFFEF20E00302749B7F5412E09590FA0A43
:20730000E0FFEF54FBFF90FA0AEFF090F9D5E0FF746D2FF582E434FAF583E0FFEF5407FF68
:2073200090ED2AEFF090F9D5E0FFEF600890F9D5E0FF12A17290F9D5E0FF90FA00E0FEEE3E
:20734000B5070690FA0074FFF090FA6AE0FFEF700A90ED2AE0FFEF6401601C90FA6BE0FF18
:20736000EF700A90ED2AE0FFEF6402600A90F9C2E0FFEF64FF606190F9D574FFF090FEE0F3
:20738000E0FFEF540FFF90FEE0EFF012E81A90ED2AE0FFEFB401077FFC12E8C9801D90F9C7
:2073A000C2E0FFEF64FF600E90FC80E0FFEF4404FF90FC80EFF07FFE12E82890F9DBE00479
:2073C000F090F9D9E4F090F9F2E4F090F9E5E4F090F9D8E4F002747C90ED2AE0FF12E0E275
:2073E00090F9D5E0FFEF64FF600612C62A02747C90F9F2E0FFEF705A90F9E5E0FFEF705293
:2074000090FEE0E0FFEF540FFF90FEE0EFF012E81A90ED2AE0FFEFB4011690F9DBE0FF7476
:20742000DC2FF582E434F9F583E0FF12E8C9801490F9DBE0FF74DC2FF582E434F9F583E069
:20744000FF12E82890F9DBE004F090F9DAE014F0801690FEE0E0FFEF540FFF90F9D6E0FE1B
:20746000EF4EFF90FEE0EFF090F9F2E4F090F9E5E4F090F9D8E4F090F9D9E4F090FA00E01D
:20748000FFEF64FF703390FA70E0FFEF5407FFEF6402602590FA7074B2F02290EC6FE0FF00
:2074A000EFB4010A7F4312E0957F2C12E09590F9F57401F07F7812E8B52290ECC3E4F09055
:2074C000ECC3E0FFEFC3940840030275A590ECC3E0FF74572FF582E434FAF583E0FFEF6426
:2074E000FF700302759C90FA4DE0FFEF600302759C90ECC4E4F090ECC4E0FFEFC39408501B
:207500002E90ECC4E0FF744E2FF582E434FAF583E0FF90ECC3E0FE74572EF582E434FAF5B9
:2075200083E0FEEE6F600890ECC4E004F080C790ECC4E0FFEF6408706390ECC3E0FF7443A8
:207540002FF582E434FAF583E0FF7D001263B290ECC5EFF090ECC3E0FF74432FF582E434C5
:20756000FAF583E0FF90FA5FE0FEEEB5071390FA5FE4F090FCA3E0FFEF54FBFF90FCA3EF10
:20758000F090ECC5E0FFEFB4011290ECC3E0FF74572FF582E434FAF58374FFF090ECC3E08A
:2075A00004F00274BF90ECC3E4F090ECC3E0FFEFC39408400302770990ECC3E0FF744E2F4F
:2075C000F582E434FAF583E0FFEF64FF700302770090FA4DE0FFEF600302770090ECC4E4E8
:2075E000F090ECC4E0FFEFC39408502E90ECC4E0FF74572FF582E434FAF583E0FF90ECC378
:20760000E0FE744E2EF582E434FAF583E0FEEE6F600890ECC4E004F080C790ECC4E0FFEF8F
:207620006408600302770090ECC4E4F090ECC4E0FFEFC39408400302770090ECC4E0FF7432
:20764000572FF582E434FAF583E0FFEF64FF60030276F790ECC3E0FF744E2FF582E434FA08
:20766000F583E0FF12A04390ECC6EFF090ECC6E0FF7D011263B290ECC5EFF090ECC5E0FF97
:20768000EF6401707B90ECC3E0FF744E2FF582E434FAF583E0FF90ECC4E0FE74572EF5822E
:2076A000E434FAF583EFF090ECC6E0FF90ECC4E0FE74432EF582E434FAF583EFF090ECC61B
:2076C000E0FF90FA5FEFF090FCA3E0FFEF4404FF90FCA3EFF0C2AF90F982E0FFEF54FBFF19
:2076E00090F982EFF0D2AF90FA65E0FFEF54FBFF90FA65EFF0800990ECC4E004F002762C05
:2077000090ECC3E004F00275AA2290EC5A12637190EC5A126368126007FF90EC5DEFF090E4
:20772000EC5EE4F090EC5DE0FFEF70030277F590EC5DE0FFEF6401704F90EC5F740FF0A3E7
:2077400074A0F090FC86E0FFEF30E01790EC5F74FF75F0FF12612E90EC5FE0FEA3E0FFEFA1
:207760004E70E090EC5EE0FF7E00EF2401FFEE3400FE90EC5A1263688F828E83126044FF77
:207780007B007D0112C3122290EC5DE0FFEF606590EC5EE0FF7E00EF2401FFEE3400FE9081
:2077A000EC5A1263688F828E83126044FFEF64FF602090EC5EE0FF7E00EF2401FFEE340091
:2077C000FE90EC5A1263688F828E83126044FF12D2A390FA4DE0FFEFB4010C90EC5EE0FF7B
:2077E000EF04FF12DC962290EC5EE004F090EC5DE014F080932290FA66EFF090FA67F0227F
:20780000C082C08390FEA0E0D083D082547F6003C39403C4C0E074D9C0E0C082C08302D9EF
:2078200000C082C08390FEA0E0D083D082547F6003C39403C4C0E074D9C0E0C082C08302A8
:20784000D910C082C08390FEA0E0D083D082547F6003C39403C4C0E074D9C0E0C082C083A1
:2078600002D920C082C08390FEA0E0D083D082547F6003C39403C4C0E074D9C0E0C082C0F2
:207880008302D930EFC490D900739038840142900C830142903D730142901F81012190373E
:2078A000DF01429025D7016390358F0163902B3201429035EA0163903DBA014290205101EF
:2078C00021903D94014290249A0163901F6D01639033B9016390282D01429033C201429051
:2078E00034BF014290191F016390363E01639024160121901488016390268C01219021AD80
:2079000001219026AC0121902455012190270701219027640121901A490121901E91012103
:2079200090279801219017CC012190215801219022A6012190254501219025B00121900B5E
:207940003E01219024CF0121902102012190239101219026EB0121901D93012190045401D9
:2079600021902791012190263F01219026CC012190261001219023D4012190257E0121904B
:20798000279D012190250B0121903DB501429034A60163903D9F01429038A40163903A7EC5
:2079A0000142903D5201429032B6014290175801429030940142902E0D014290384601630E
:2079C00090387901639024930121900FC60121903DC50142903D160142903D3F0142903800
:2079E000AC0163903BE40142901B4C016390369101639038B101639031A7014290267501BB
:207A00004290218001429027320121901C6B012190225301219018A501219029B401429096
:207A20003D7E014290271E01219016EE012190278901210074FF90EC04F0A3F0E4A3F090BC
:207A4000FBFCE0FF600A90EC06F090FBFC7404F0E490F69EF090FA06E064026003027C03D3
:207A600090FADDE06003027C0390FA05E054FDF074FF90EC04F0A3F090FC86E030E37990A7
:207A8000EC6FE0B401127F0A12E0957F4912E09590FA01E0FF12D54590FA07E020E7031262
:207AA000C42490FA01E0FF12C6A790EC03EFF0BFFF03E4803790EC03E0702D90FA07E020AE
:207AC000E71DE490F9C0F090FA01E0FFC4540F75F003A4241DF582E434CD12A43D80119037
:207AE000FA05E04402F0800890EC03E090F9C1F0E490F874F0027BC4E490EC03F090F9C0A3
:207B0000E0700690F9C1E0605090EC6FE0B401057F44127C1990EC0374FFF090F9C1E070CA
:207B20002890FA07E020E71E90FA02E0FF90F9C0E0FEC4540F75F003A4244DF582E434CDF5
:207B400012A43D027BC4027BBD90FA02E0FF12C72290F9C1EFF0027BC490EC6FE0B4010562
:207B60007F56127C1990FA07E020E72F7D027F0112E2EA90F9DBE0700690F9DAE0601C90FC
:207B8000F9F2E0700D90F9E5E0700712A3E8A37401F0E490F9DBF090F9DAF090FA02E0FF3D
:207BA00012B0DE90F86EEFF0701A90FA07E020E70CE490F9EF12A4B812E309800790FA0564
:207BC000E04402F090EC04E0F47003A3E0F4600F90EC05E0FF90FAC1E0FDE4FB12C3129004
:207BE000FA05E0FFC31320E01A90FC86E030E302800E90F9D5E0F4600790EC03E0B4FF0374
:207C000012E81A90EC06E0FF600E90FBFCE0B40407EFF0E490EC06F02212E09590FA02E011
:207C2000FF12D54522EF1263867C4BA47C59A57C70A67C81A77CB0A87DE8A97D01AA7DF972
:207C4000AB7D65AD7D74AE00007E0F90F9F7E07E0060037FFA227FF12290F9F77401F0E487
:207C600090F9F9F090F9FAF090F9C0EFF0027E0F90F9F7E0600690F9F87401F07EFF7FFFC1
:207C80002290F9C2E0B4FF0990FC80E04420027D6B90F9C2E0FF246D12A3D454076402603C
:207CA00003027E0F12A4C08002C333D8FC4E804790F9C2E0F4702290FC80E054DFF0E0FFBC
:207CC00012BD1890F9E0E0FFC4540364026003027E0F12A4CBF0027DE390F9C2E0FF246D74
:207CE00012A3D4540764026003027E0F12A4C08002C333D8FCF45E90F9C4F090FC80027D6C
:207D00006C90FC80E04410F0E04420F0E0FF12BD18E490F9E6F090EC07F090EC07E0FFC3F2
:207D20009404501E746D2F12A3D4FF5407FEBE020990EC0712A3C24430F090EC07E004F0CE
:207D400080D812A406E490F9F4F012A45290F9E0F090FC86E054FDF0E490F9D7F090F9FB72
:207D6000F0FE7F552290FC80E04410F0E0FF12BD18027E0F90FC80E054EFF090F9EFE070B3
:207D80000A90FC80E0FF12BD18804CE490EC07F090EC07E0FFC39404502F746D2F12A3D40F
:207DA0005407FFBF011B90EC0712A4708002C333D8FCFCF4FE90FEE0E05EF090F9D6E04C84
:207DC000F090EC07E004F080C790F9E0E0700512A45F800312C79C90F9E0E0FFC454036483
:207DE00001702C12C79C80277F0212E6D490EC07EFF0BF0402800F80127F0112E6D490EC6D
:207E000007EFF0BF04057E007FFF22E4FEFF2212A4B1FEFF2290ED12EFF090ED12E0FFEF42
:207E20001263867E30007F1D017FC90200007FFE90FF0DE0FF90F898EFF090FF0CE0FF90B1
:207E4000F899EFF07F4412E0957F4512E0957F4512E0957F5012E095129B1F12E45612E46E
:207E60003D7F0012DD2F90F609E0FFEF131313541FFFEF20E0137F3012E22490FF0CE0FFDD
:207E8000EF4404FF90FF0CEFF0C2AF90FEA5E0FFEF549FFF90FEA5EFF090F55474A5F012C8
:207EA000E80BD2AF7F5712E0957F4112E0957F4B12E0957F4512E09512DCFD90FEA5E0FF11
:207EC000EF4440FF90FEA5EFF0C28C438602E58954F0FFEF4401F589758A3B758CF6C28D22
:207EE000D2A9D28C90F898E0FF90FF0DEFF090F899E0FF90FF0CEFF07F0012E7CD12CBF69D
:207F000090ED13EFF0128FFB90FF01E4F090F554E4F07F2012E22490FF01E4F02290FF0178
:207F2000E0FFEF64336003027FFE90FF0DE0FF90F898EFF090FF0CE0FF90F899EFF07F0285
:207F40001280FE7F4912E0957F4412E0957F4C12E0957F4512E09512807A90FE95E0FFEF5E
:207F6000547FFF90FE95EFF090FEA774A3F090FEA57405F090F5547433F0E58754FCFFEF3B
:207F80004401F58790FE95E0FFEF4480FF90FE95EFF090FEA7E4F090FEA57464F07F57127E
:207FA000E0957F4112E0957F4B12E0957F4512E09590F898E0FF90FF0DEFF090F899E0FFEF
:207FC00090FF0CEFF012A4E72290FF1174FFF07F011280FE90FE95E0FFEF547FFF90FE956F
:207FE000EFF090FEA774A3F090FEA57405F0438740C2AF90F55474A5F043860180FE2222E1
:2080000002403002E5407EFF7FFF2202D38B7EFF7FFF2202E55612A478223202E5AB12A426
:20802000A2223202E46F90ECF6EFF090ECF6E0FF800090ECF7E4F0A3E4F090ECF7E0FEA321
:20804000E0FF2202E5BF02D0B3323202801A02D251322202D1FF02D3D7222202802202D63D
:20806000A6222202DE2602BC6E22220280497FFF22222202804A7FFF2222220280517FFFF0
:2080800022222202E5D37FFF22000002E5E77FFF22000002C9E77F0022000002AFFF7F0030
:2080A00022000002E56C7F0022000002E5817FFF22000002E3EF7F0022000002E4097FFFC0
:2080C00022000002E5FB7FFF22000002DE847F0022000002E60F7F0022000002E6237F00D5
:2080E00022000002E6377F0022000002E64B7FFF22000002E65F7F0022000002E67390ED0B
:2081000014EFF090F896E4F090ED14E0FFEFB4021090F89674AAF090FF20E0FF90F86AEFBA
:20812000F090FC80E0FF90F850EFF090FCA3E0FFEF54FBFF90F852EFF090FCA0E0FF90F816
:2081400053EFF090FE20E0FF90F857EFF090FE30E0FF90F858EFF090FE50E0FF90F855EFBD
:20816000F090FE80E0FF90F856EFF090FF04E0FF90F854EFF090FE9DE0FF90F867EFF090D0
:20818000FEC0E0FF90F868EFF090FE95E0FF90F869EFF090FEE0E0FF90F851EFF090FC927E
:2081A000E0FF90F86BEFF090ED15E4F090ED15E0FFEFC3940C502A90ED15E0FF74302FF532
:2081C00082E434FFF583E0FF90ED15E0FE745A2EF582E434F8F583EFF090ED15E004F0807F
:2081E000CB90FF95E0FF90F859EFF090F866E5A8F090FF0CE0FFEF54F7FF90FF0CEFF090C9
:20820000ED14E0FFEFB4020E90FF20E0FFEF4407FF90FF20EFF090FC80E0FFEF4410FF90B9
:20822000FC80EFF090FC80E0FFEF4420FF90FC80EFF090FC80E0FF12BD1890FEE0E4F0C2E5
:208240008390FCA3E4F090FCA0E0FFEF54FCFF90FCA0EFF090FE20E4F090FE30E4F090FEA2
:2082600050E4F090FE80E0FFEF5480FF90FE80EFF090FE9DE0FFEF54FCFF90FE9DEFF0905C
:20828000FEC0E4F090FE95E0FFEF54EFFF90FE95EFF0C28612E43D90FF04E0FFEF54FCFFEC
:2082A00090FF04EFF090ED15E4F090ED15E0FFEFC3940C501990ED15E0FF74302FF582E41B
:2082C00034FFF583E4F090ED15E004F080DC90FF95E4F090FEA3E0FFEF543FFF90FEA3EFB4
:2082E000F075A8802290EC14E0FCA3E0FDA3E0FEA3E02278102410FFE434D0FEE43401FD06
:20830000E433FC0262E0FFE4FCFDE0F8A3A3A3E02FFFEA3EFEED39FDEC38FC78081262CD31
:20832000AD07E022FF78081262F490EC12A804A905AA06AB07E0FFE4FCFDFEEB2FFFEE3A5B
:20834000FEED39FDEC38FC2275F010A4FFE42FFFE5F034D0FEE43401FDE433FC0262E090BC
:20836000EC0CE4FCFDE0F8A3E0F9A3E0FAA3E02FFFEA3E222400FFEE3408FEE43DFDE43CD3
:20838000227D017BFF7E007F02125FE190F60EE022E490EC0CF0A3F0A3F0A3F022FF78101E
:2083A0000262CDFEED3401FDE43CFC02631F780834D0FEE43401FDE433FC0262E034F5FABD
:2083C00090ED02EBF0A3EAF0A3E9F022E0FD90EC03E0FC2FF582E43EF583E49322AF03E481
:2083E000FCFDFE02631F90EC10E0FEA3E022C313FF24ACF582E434F6F58322EFF0A3EDF0D0
:2084000090F60EE02290EC04E0FBA3E0FAA3E0F902600790EC0CE004F022F582E434F6F511
:2084200083E090ECD6F022E0FF90F643E06F22F582E434FCF58322F582E434FCF58322F51D
:2084400082E434FCF58322FB90ECD674A5F02290EC09E004F0E0C3941022EFF090F60EE05F
:208460002290F643F090F64104F02290F6A1F0E490F643F02290F494E07B012400F922F5C6
:2084800083EBF090EC03E0FC22EF25E0FF7403A80708222400FFEE34F0222400FFEE34E042
:2084A00022FF90EC11E0FEEF2EFB22E4FB7DD07F012290F97BE0FFEF600302865590F97A13
:2084C000E0FFEF54A0FFEF700302865B90FF80E0FFEF4401FF90FF80EFF090F97AE0FFEFB6
:2084E00020E50302861C90FF93E0FFEF5430FFEF6430600302864690F97AE0FFEF54DFFFA6
:2085000090F97AEFF090F979E0FFEF701190F97AE0FFEF547FFF90F97AEFF002864690F94C
:2085200040E0FFEF30E71E90F485E0FF90FFBDEFF090F486E0FF90FFBEEFF090F487E0FFE6
:2085400090FFBFEFF090FF93E0FFEF54FCFF90ECF5EFF090ECF5E0FF90F941E0FE7401A84A
:2085600006088002C333D8FCFEEF4EFF90ECF5EFF090ECF5E0FF90FF93EFF090F942E0FF1C
:2085800090FF9BEFF090F943E0FF90FF9AEFF090F945E0FF90FFBCEFF090F945E0FF90EC1F
:2085A000F4EFF090F945E0FFEFD39408400690ECF47408F090ECF3E4F090ECF4E0FF90ECAD
:2085C000F3E0FEEEC39F502A90ECF3E0FF74462FF582E434F9F583E0FF90ECF3E0FE749C8D
:2085E0002EF582E434FFF583EFF090ECF3E004F080C790FF99E4F090F944E0FF90FF98EF20
:20860000F090F97CE4F090F97AE0FFEF4480FF90F97AEFF090F97B740DF0802A90F97AE019
:20862000FFEF4460FF90F97AEFF0C2AF90F986E0FFEF4404FF90F986EFF0D2AF90FF98E4B8
:20864000F090FF99E4F090FF80E0FFEF54FEFF90FF80EFF02290F97BE014F02212001400C0
:20866000110002007F005900E014E011E07CE114E070E06CE07DE071E069E07AE075E06B4C
:20868000E072E074E04AE05A000000007700E037E03FE05EE01FE027E02FE07EE032E0215F
:2086A000E04DE015E03BE034E023E050E048E02BE040E010E03AE038E030E028E020E018B1
:2086C00077000000E11477E1F014F07700E07EE0F07E00E012E07C00E0F07CE0F01200FF44
:2086E00043413F3D3B3C58644442403E0F295965382A701D10025A66712C1F1E11035B67DC
:208700002E2D201205045C68392F211413065D693130232215075E6A7232241608095F6B40
:20872000332517180B0A606C34352627190C616D7328741A0D626E3A361C1B752B637655AD
:20874000567778797A0E7B7C4F7D4B477E7F6F5253504C4D480145574E514A374946543D5F
:208760006C3E75467D457C3C6B437344744D7B3B6942724B7A4C793A7049714A94B3B3B33C
:20878000B3B3B3B3B3B3B3B3B3B3B3B3B3B3B3908C918B928F938E077E8A88B3B3B3B3B3CC
:2087A000B3B3B3B3B3B3B3B3B3B3B3B3B3B3B3B3B3B3B3B3B3B3B3B3B3B3B3B3B3B3B3B359
:2087C000B3B3B3B3B3B3B3B3B3B3B3B3B3B3B33D8B6C3E9075468C7D4594943C916B4373FB
:2087E000734493744D7C7C3B8E694292724B8F7A4C7B7B3A8A70498D714A79795A9595B37A
:20880000B3B390ECEDEFF090ECEEEDF090FEE1E0FFEF54F0FF90F9D4EFF090FC80E0FFEFCD
:2088200020E60302895590ECEDE0FFEF701E90FA08E0FF12E1E090F9DAE0FEEE540FFE7442
:20884000DC2EF582E434F9F583EFF02290FA08E0FFEF64F060030288EE90F9E27480F0909F
:20886000ECEEE0FFEF60030289A490FC80E0FFEF20E47490F9D5E0FFEF64FF706A90F9EF8B
:208880007403F090ECEFE4F090ECEFE0FFEFC39404504290ECEFE0FF746D2FF582E434FA29
:2088A000F583E0FFEF5407FFEFB4012190ECEFE0FF7410A807088002C333D8FCFFEFF4FFA1
:2088C00090FEE0E0FEEF5EFF90FEE0EFF090ECEFE004F080B390FEE0E0FF90F9D4E0FEEFCA
